{
  "contractName": "UserHolder",
  "abi": [
    {
      "constant": false,
      "inputs": [
        {
          "name": "cost",
          "type": "uint256"
        },
        {
          "name": "year",
          "type": "uint256"
        }
      ],
      "name": "addClient",
      "outputs": [
        {
          "name": "sufficient",
          "type": "bool"
        }
      ],
      "payable": false,
      "stateMutability": "nonpayable",
      "type": "function"
    },
    {
      "constant": false,
      "inputs": [
        {
          "name": "addr",
          "type": "address"
        },
        {
          "name": "year",
          "type": "uint256"
        }
      ],
      "name": "getCostByAddress",
      "outputs": [
        {
          "name": "",
          "type": "uint256"
        }
      ],
      "payable": false,
      "stateMutability": "nonpayable",
      "type": "function"
    },
    {
      "constant": false,
      "inputs": [
        {
          "name": "year",
          "type": "uint256"
        }
      ],
      "name": "getCost",
      "outputs": [
        {
          "name": "",
          "type": "uint256"
        }
      ],
      "payable": false,
      "stateMutability": "nonpayable",
      "type": "function"
    },
    {
      "inputs": [],
      "payable": false,
      "stateMutability": "nonpayable",
      "type": "constructor"
    },
    {
      "anonymous": false,
      "inputs": [
        {
          "indexed": false,
          "name": "_user",
          "type": "address"
        },
        {
          "indexed": false,
          "name": "_cost",
          "type": "uint256"
        },
        {
          "indexed": false,
          "name": "_year",
          "type": "uint256"
        }
      ],
      "name": "NewClient",
      "type": "event"
    }
  ],
  "bytecode": "0x6060604052341561000f57600080fd5b6103538061001e6000396000f300606060405260043610610057576000357c0100000000000000000000000000000000000000000000000000000000900463ffffffff168063217e372f1461005c57806348967253146100a05780635a4dd47d146100f6575b600080fd5b341561006757600080fd5b610086600480803590602001909190803590602001909190505061012d565b604051808215151515815260200191505060405180910390f35b34156100ab57600080fd5b6100e0600480803573ffffffffffffffffffffffffffffffffffffffff1690602001909190803590602001909190505061026e565b6040518082815260200191505060405180910390f35b341561010157600080fd5b61011760048080359060200190919050506102cb565b6040518082815260200191505060405180910390f35b6000806000803373ffffffffffffffffffffffffffffffffffffffff1673ffffffffffffffffffffffffffffffffffffffff16815260200190815260200160002090506000816000016000858152602001908152602001600020541415156101985760009150610267565b836000803373ffffffffffffffffffffffffffffffffffffffff1673ffffffffffffffffffffffffffffffffffffffff1681526020019081526020016000206000016000858152602001908152602001600020819055507f34ed8023bf558e5e50338aec5bfabc069684009be55f33ed750f9c0705a7fcc0338585604051808473ffffffffffffffffffffffffffffffffffffffff1673ffffffffffffffffffffffffffffffffffffffff168152602001838152602001828152602001935050505060405180910390a1600191505b5092915050565b60008060008473ffffffffffffffffffffffffffffffffffffffff1673ffffffffffffffffffffffffffffffffffffffff168152602001908152602001600020600001600083815260200190815260200160002054905092915050565b60008060003373ffffffffffffffffffffffffffffffffffffffff1673ffffffffffffffffffffffffffffffffffffffff16815260200190815260200160002060000160008381526020019081526020016000205490509190505600a165627a7a723058209c4972e5ca6fa3aa181da165e68fef901eb17d695801bcd10893c883fb0c5bb50029",
  "source": "pragma solidity ^0.4.4;\n\n\ncontract UserHolder {\n\n    struct Item {\n    mapping (uint => uint) cost;\n    }\n\n    mapping (address => Item) balances;\n\n\n    event NewClient(address _user, uint256 _cost, uint256 _year);\n\n    function UserHolder() {}\n\n    function addClient(uint cost, uint year) returns (bool sufficient) {\n\n        Item balance = balances[msg.sender];\n        if (balance.cost[year] != 0) {\n            return false;\n        }\n\n        balances[msg.sender].cost[year] = cost;\n        NewClient(msg.sender, cost, year);\n        return true;\n    }\n\n\n    function getCost(uint year) returns (uint) {\n        return balances[msg.sender].cost[year];\n    }\n\n    function getCostByAddress(address addr, uint year) returns (uint) {\n        return balances[addr].cost[year];\n    }\n\n}\n",
  "sourcePath": "C:\\Users\\Egor\\WebstormProjects\\ibm_showcase\\truffle\\contracts\\UserHolder.sol",
  "compiler": {
    "name": "solc",
    "version": "0.4.18+commit.9cf6e910.Emscripten.clang"
  },
  "schemaVersion": "1.0.1",
  "updatedAt": "2017-11-14T18:03:12.255Z"
}